:020000040000FA
:020000003028A6
:040002000034003492
:0800080083120313251C0B28D1
:10001000A51C162826286C20831203132208A3008F
:10002000A2012514831203130B1009006C20831204
:1000300003132208A400A2012307A20083120313C2
:100040008600A514831203130B1009006C20A20173
:10005000A501A301A401831203130B106C20090056
:1000600083160317890183160313860186168312EC
:10007000031386018316031788018316031389016E
:1000800089158312031389018316031396168312AD
:1000900003138B018B178B150B1083120313A00115
:1000A000A101A201A301A401A5016C2083120313E5
:1000B000891D5F20831203132208860056286C20B6
:1000C000A518080083120313A20AA21968200800C9
:1000D00083120313A201080083120313A00B6E28DE
:0600E000A10B6E280800D0
:02400E00D420BC
:02401000FF3E71
:00000001FF
